{
  "contractName": "EtherReceiver",
  "abi": [
    {
      "inputs": [],
      "payable": false,
      "stateMutability": "nonpayable",
      "type": "constructor"
    },
    {
      "payable": true,
      "stateMutability": "payable",
      "type": "fallback"
    },
    {
      "constant": true,
      "inputs": [],
      "name": "getBalance",
      "outputs": [
        {
          "internalType": "uint256",
          "name": "",
          "type": "uint256"
        }
      ],
      "payable": false,
      "stateMutability": "view",
      "type": "function"
    },
    {
      "constant": true,
      "inputs": [],
      "name": "greeting",
      "outputs": [
        {
          "internalType": "string",
          "name": "",
          "type": "string"
        }
      ],
      "payable": false,
      "stateMutability": "pure",
      "type": "function"
    },
    {
      "constant": false,
      "inputs": [],
      "name": "withdraw",
      "outputs": [],
      "payable": false,
      "stateMutability": "nonpayable",
      "type": "function"
    }
  ],
  "bytecode": "0x608060405234801561001057600080fd5b50336000806101000a81548173ffffffffffffffffffffffffffffffffffffffff021916908373ffffffffffffffffffffffffffffffffffffffff1602179055506102b3806100606000396000f3fe6080604052600436106100345760003560e01c806312065fe0146100365780633ccfd60b14610061578063ef690cc014610078575b005b34801561004257600080fd5b5061004b610108565b6040518082815260200191505060405180910390f35b34801561006d57600080fd5b50610076610110565b005b34801561008457600080fd5b5061008d61021f565b6040518080602001828103825283818151815260200191508051906020019080838360005b838110156100cd5780820151818401526020810190506100b2565b50505050905090810190601f1680156100fa5780820380516001836020036101000a031916815260200191505b509250505060405180910390f35b600047905090565b6000809054906101000a900473ffffffffffffffffffffffffffffffffffffffff1673ffffffffffffffffffffffffffffffffffffffff163373ffffffffffffffffffffffffffffffffffffffff16146101b5576040517f08c379a000000000000000000000000000000000000000000000000000000000815260040180806020018281038252602281526020018061025d6022913960400191505060405180910390fd5b6000809054906101000a900473ffffffffffffffffffffffffffffffffffffffff1673ffffffffffffffffffffffffffffffffffffffff166108fc479081150290604051600060405180830381858888f1935050505015801561021c573d6000803e3d6000fd5b50565b60606040518060400160405280601e81526020017f48656c6c6f2c204920616d20616e20657468657220726563656976657221000081525090509056fe4f6e6c79206f776e65722063616e2063616c6c20746869732066756e6374696f6e2ea265627a7a7231582097df8464281e36e7aac5b469100134812c163e1d3443fb69b1faabd83268243964736f6c63430005100032",
  "source": "// SPDX-License-Identifier: MIT\n\npragma solidity 0.5.16;\n\ncontract EtherReceiver {\n  address payable owner;\n\n  constructor() public {\n    owner = msg.sender;\n  }\n\n  modifier onlyOwner {\n    require(\n      msg.sender == owner,\n      \"Only owner can call this function.\"\n    );\n    _;\n  }\n\n  function () payable external {}\n\n  function getBalance() public view returns (uint) {\n    return address(this).balance;\n  }\n\n  function greeting() public pure returns (string memory) {\n    return \"Hello, I am an ether receiver!\";\n  }\n\n  function withdraw() onlyOwner public {\n    owner.transfer(address(this).balance);\n  }\n}\n",
  "sourcePath": "/home/standard/projects/solidity-withdraw-ether-from-contract/contracts/EtherReceiver.sol",
  "compiler": {
    "name": "solc",
    "version": "0.5.16+commit.9c3226ce.Emscripten.clang"
  },
  "schemaVersion": "3.3.1",
  "updatedAt": "2020-10-27T16:15:00.157Z",
  "networkType": "ethereum",
  "devdoc": {
    "methods": {}
  },
  "userdoc": {
    "methods": {}
  }
}